{
  "_format": "hh-sol-artifact-1",
  "contractName": "MyContract",
  "sourceName": "contracts/MyContract.sol",
  "abi": [
    {
      "inputs": [
        {
          "internalType": "string",
          "name": "name",
          "type": "string"
        },
        {
          "internalType": "uint256",
          "name": "balance",
          "type": "uint256"
        }
      ],
      "stateMutability": "nonpayable",
      "type": "constructor"
    },
    {
      "inputs": [],
      "name": "getMyBalance",
      "outputs": [
        {
          "internalType": "uint256",
          "name": "",
          "type": "uint256"
        }
      ],
      "stateMutability": "view",
      "type": "function"
    },
    {
      "inputs": [],
      "name": "getMyName",
      "outputs": [
        {
          "internalType": "string",
          "name": "",
          "type": "string"
        }
      ],
      "stateMutability": "view",
      "type": "function"
    },
    {
      "inputs": [
        {
          "internalType": "uint256",
          "name": "amount",
          "type": "uint256"
        }
      ],
      "name": "myDeposite",
      "outputs": [],
      "stateMutability": "nonpayable",
      "type": "function"
    },
    {
      "inputs": [],
      "name": "tagname",
      "outputs": [
        {
          "internalType": "string",
          "name": "",
          "type": "string"
        }
      ],
      "stateMutability": "pure",
      "type": "function"
    }
  ],
  "bytecode": "0x60806040523480156200001157600080fd5b50604051620008d3380380620008d383398181016040528101906200003791906200032f565b6101f48110156200007f576040517f08c379a000000000000000000000000000000000000000000000000000000000815260040162000076906200041c565b60405180910390fd5b816000908051906020019062000097929190620000a7565b50806001819055505050620004a3565b828054620000b5906200046d565b90600052602060002090601f016020900481019282620000d9576000855562000125565b82601f10620000f457805160ff191683800117855562000125565b8280016001018555821562000125579182015b828111156200012457825182559160200191906001019062000107565b5b50905062000134919062000138565b5090565b5b808211156200015357600081600090555060010162000139565b5090565b6000604051905090565b600080fd5b600080fd5b600080fd5b600080fd5b6000601f19601f8301169050919050565b7f4e487b7100000000000000000000000000000000000000000000000000000000600052604160045260246000fd5b620001c08262000175565b810181811067ffffffffffffffff82111715620001e257620001e162000186565b5b80604052505050565b6000620001f762000157565b9050620002058282620001b5565b919050565b600067ffffffffffffffff82111562000228576200022762000186565b5b620002338262000175565b9050602081019050919050565b60005b838110156200026057808201518184015260208101905062000243565b8381111562000270576000848401525b50505050565b60006200028d62000287846200020a565b620001eb565b905082815260208101848484011115620002ac57620002ab62000170565b5b620002b984828562000240565b509392505050565b600082601f830112620002d957620002d86200016b565b5b8151620002eb84826020860162000276565b91505092915050565b6000819050919050565b6200030981620002f4565b81146200031557600080fd5b50565b6000815190506200032981620002fe565b92915050565b6000806040838503121562000349576200034862000161565b5b600083015167ffffffffffffffff8111156200036a576200036962000166565b5b6200037885828601620002c1565b92505060206200038b8582860162000318565b9150509250929050565b600082825260208201905092915050565b7f62616c616e6365206d7573742062652067726561746572206f7220657175616c60008201527f2035303000000000000000000000000000000000000000000000000000000000602082015250565b60006200040460248362000395565b91506200041182620003a6565b604082019050919050565b600060208201905081810360008301526200043781620003f5565b9050919050565b7f4e487b7100000000000000000000000000000000000000000000000000000000600052602260045260246000fd5b600060028204905060018216806200048657607f821691505b602082108114156200049d576200049c6200043e565b5b50919050565b61042080620004b36000396000f3fe608060405234801561001057600080fd5b506004361061004c5760003560e01c80634c7389091461005157806375a54bc21461006f57806375c99f9b1461008d578063a5666cf5146100a9575b600080fd5b6100596100c7565b60405161006691906101d0565b60405180910390f35b6100776100d1565b6040516100849190610284565b60405180910390f35b6100a760048036038101906100a291906102d7565b610163565b005b6100b161017a565b6040516100be9190610284565b60405180910390f35b6000600154905090565b6060600080546100e090610333565b80601f016020809104026020016040519081016040528092919081815260200182805461010c90610333565b80156101595780601f1061012e57610100808354040283529160200191610159565b820191906000526020600020905b81548152906001019060200180831161013c57829003601f168201915b5050505050905090565b806001546101719190610394565b60018190555050565b60606040518060400160405280600a81526020017f426c6f636b436861696e00000000000000000000000000000000000000000000815250905090565b6000819050919050565b6101ca816101b7565b82525050565b60006020820190506101e560008301846101c1565b92915050565b600081519050919050565b600082825260208201905092915050565b60005b8381101561022557808201518184015260208101905061020a565b83811115610234576000848401525b50505050565b6000601f19601f8301169050919050565b6000610256826101eb565b61026081856101f6565b9350610270818560208601610207565b6102798161023a565b840191505092915050565b6000602082019050818103600083015261029e818461024b565b905092915050565b600080fd5b6102b4816101b7565b81146102bf57600080fd5b50565b6000813590506102d1816102ab565b92915050565b6000602082840312156102ed576102ec6102a6565b5b60006102fb848285016102c2565b91505092915050565b7f4e487b7100000000000000000000000000000000000000000000000000000000600052602260045260246000fd5b6000600282049050600182168061034b57607f821691505b6020821081141561035f5761035e610304565b5b50919050565b7f4e487b7100000000000000000000000000000000000000000000000000000000600052601160045260246000fd5b600061039f826101b7565b91506103aa836101b7565b9250827fffffffffffffffffffffffffffffffffffffffffffffffffffffffffffffffff038211156103df576103de610365565b5b82820190509291505056fea26469706673582212208cd57c66ccc30f99c592115fb61e62afb8c46124110dfdf3522671300a5ad15164736f6c63430008090033",
  "linkReferences": {},
  "deployedLinkReferences": {}
}